{
  "_format": "hh3-artifact-1",
  "contractName": "NodeRewards",
  "sourceName": "contracts/Reward.sol",
  "abi": [
    {
      "inputs": [
        {
          "internalType": "address",
          "name": "_rewardToken",
          "type": "address"
        }
      ],
      "stateMutability": "nonpayable",
      "type": "constructor"
    },
    {
      "inputs": [
        {
          "internalType": "address",
          "name": "owner",
          "type": "address"
        }
      ],
      "name": "OwnableInvalidOwner",
      "type": "error"
    },
    {
      "inputs": [
        {
          "internalType": "address",
          "name": "account",
          "type": "address"
        }
      ],
      "name": "OwnableUnauthorizedAccount",
      "type": "error"
    },
    {
      "inputs": [
        {
          "internalType": "address",
          "name": "token",
          "type": "address"
        }
      ],
      "name": "SafeERC20FailedOperation",
      "type": "error"
    },
    {
      "anonymous": false,
      "inputs": [
        {
          "indexed": false,
          "internalType": "string",
          "name": "nodeId",
          "type": "string"
        }
      ],
      "name": "NodeDeactivated",
      "type": "event"
    },
    {
      "anonymous": false,
      "inputs": [
        {
          "indexed": true,
          "internalType": "address",
          "name": "user",
          "type": "address"
        },
        {
          "indexed": false,
          "internalType": "string",
          "name": "nodeId",
          "type": "string"
        },
        {
          "indexed": false,
          "internalType": "uint256",
          "name": "planId",
          "type": "uint256"
        }
      ],
      "name": "NodeRegistered",
      "type": "event"
    },
    {
      "anonymous": false,
      "inputs": [
        {
          "indexed": true,
          "internalType": "address",
          "name": "previousOwner",
          "type": "address"
        },
        {
          "indexed": true,
          "internalType": "address",
          "name": "newOwner",
          "type": "address"
        }
      ],
      "name": "OwnershipTransferred",
      "type": "event"
    },
    {
      "anonymous": false,
      "inputs": [
        {
          "indexed": true,
          "internalType": "address",
          "name": "user",
          "type": "address"
        },
        {
          "indexed": false,
          "internalType": "string",
          "name": "nodeId",
          "type": "string"
        },
        {
          "indexed": false,
          "internalType": "uint256",
          "name": "amount",
          "type": "uint256"
        }
      ],
      "name": "RewardClaimed",
      "type": "event"
    },
    {
      "inputs": [
        {
          "internalType": "string",
          "name": "nodeId",
          "type": "string"
        }
      ],
      "name": "claimReward",
      "outputs": [],
      "stateMutability": "nonpayable",
      "type": "function"
    },
    {
      "inputs": [
        {
          "internalType": "string",
          "name": "nodeId",
          "type": "string"
        }
      ],
      "name": "deactivateNode",
      "outputs": [],
      "stateMutability": "nonpayable",
      "type": "function"
    },
    {
      "inputs": [
        {
          "internalType": "address",
          "name": "user",
          "type": "address"
        },
        {
          "internalType": "string",
          "name": "nodeId",
          "type": "string"
        }
      ],
      "name": "getNodeClaimed",
      "outputs": [
        {
          "internalType": "uint256",
          "name": "",
          "type": "uint256"
        }
      ],
      "stateMutability": "view",
      "type": "function"
    },
    {
      "inputs": [
        {
          "internalType": "address",
          "name": "user",
          "type": "address"
        }
      ],
      "name": "getTotalClaimed",
      "outputs": [
        {
          "internalType": "uint256",
          "name": "",
          "type": "uint256"
        }
      ],
      "stateMutability": "view",
      "type": "function"
    },
    {
      "inputs": [
        {
          "internalType": "address",
          "name": "user",
          "type": "address"
        }
      ],
      "name": "getUserNodes",
      "outputs": [
        {
          "internalType": "string[]",
          "name": "",
          "type": "string[]"
        }
      ],
      "stateMutability": "view",
      "type": "function"
    },
    {
      "inputs": [
        {
          "internalType": "address",
          "name": "",
          "type": "address"
        },
        {
          "internalType": "string",
          "name": "",
          "type": "string"
        }
      ],
      "name": "nodeClaimedRewards",
      "outputs": [
        {
          "internalType": "uint256",
          "name": "",
          "type": "uint256"
        }
      ],
      "stateMutability": "view",
      "type": "function"
    },
    {
      "inputs": [
        {
          "internalType": "string",
          "name": "",
          "type": "string"
        }
      ],
      "name": "nodes",
      "outputs": [
        {
          "internalType": "string",
          "name": "nodeId",
          "type": "string"
        },
        {
          "internalType": "address",
          "name": "user",
          "type": "address"
        },
        {
          "internalType": "uint256",
          "name": "planId",
          "type": "uint256"
        },
        {
          "internalType": "uint256",
          "name": "startTime",
          "type": "uint256"
        },
        {
          "internalType": "uint256",
          "name": "endTime",
          "type": "uint256"
        },
        {
          "internalType": "uint256",
          "name": "lastClaimed",
          "type": "uint256"
        },
        {
          "internalType": "bool",
          "name": "active",
          "type": "bool"
        }
      ],
      "stateMutability": "view",
      "type": "function"
    },
    {
      "inputs": [],
      "name": "owner",
      "outputs": [
        {
          "internalType": "address",
          "name": "",
          "type": "address"
        }
      ],
      "stateMutability": "view",
      "type": "function"
    },
    {
      "inputs": [
        {
          "internalType": "string",
          "name": "nodeId",
          "type": "string"
        }
      ],
      "name": "pendingReward",
      "outputs": [
        {
          "internalType": "uint256",
          "name": "",
          "type": "uint256"
        }
      ],
      "stateMutability": "view",
      "type": "function"
    },
    {
      "inputs": [
        {
          "internalType": "uint256",
          "name": "",
          "type": "uint256"
        }
      ],
      "name": "planWeeklyReward",
      "outputs": [
        {
          "internalType": "uint256",
          "name": "",
          "type": "uint256"
        }
      ],
      "stateMutability": "view",
      "type": "function"
    },
    {
      "inputs": [
        {
          "internalType": "string",
          "name": "nodeId",
          "type": "string"
        },
        {
          "internalType": "address",
          "name": "user",
          "type": "address"
        },
        {
          "internalType": "uint256",
          "name": "planId",
          "type": "uint256"
        },
        {
          "internalType": "uint256",
          "name": "startTime",
          "type": "uint256"
        },
        {
          "internalType": "uint256",
          "name": "endTime",
          "type": "uint256"
        }
      ],
      "name": "registerNode",
      "outputs": [],
      "stateMutability": "nonpayable",
      "type": "function"
    },
    {
      "inputs": [],
      "name": "renounceOwnership",
      "outputs": [],
      "stateMutability": "nonpayable",
      "type": "function"
    },
    {
      "inputs": [],
      "name": "rewardToken",
      "outputs": [
        {
          "internalType": "contract IERC20",
          "name": "",
          "type": "address"
        }
      ],
      "stateMutability": "view",
      "type": "function"
    },
    {
      "inputs": [
        {
          "internalType": "uint256",
          "name": "planId",
          "type": "uint256"
        },
        {
          "internalType": "uint256",
          "name": "weeklyReward",
          "type": "uint256"
        }
      ],
      "name": "setPlanReward",
      "outputs": [],
      "stateMutability": "nonpayable",
      "type": "function"
    },
    {
      "inputs": [],
      "name": "tokenBalance",
      "outputs": [
        {
          "internalType": "uint256",
          "name": "",
          "type": "uint256"
        }
      ],
      "stateMutability": "view",
      "type": "function"
    },
    {
      "inputs": [
        {
          "internalType": "address",
          "name": "",
          "type": "address"
        }
      ],
      "name": "totalClaimedRewards",
      "outputs": [
        {
          "internalType": "uint256",
          "name": "",
          "type": "uint256"
        }
      ],
      "stateMutability": "view",
      "type": "function"
    },
    {
      "inputs": [
        {
          "internalType": "address",
          "name": "newOwner",
          "type": "address"
        }
      ],
      "name": "transferOwnership",
      "outputs": [],
      "stateMutability": "nonpayable",
      "type": "function"
    },
    {
      "inputs": [
        {
          "internalType": "address",
          "name": "",
          "type": "address"
        },
        {
          "internalType": "uint256",
          "name": "",
          "type": "uint256"
        }
      ],
      "name": "userNodes",
      "outputs": [
        {
          "internalType": "string",
          "name": "",
          "type": "string"
        }
      ],
      "stateMutability": "view",
      "type": "function"
    }
  ],
  "bytecode": "0x608060405234801561000f575f5ffd5b506040516115cf3803806115cf83398101604081905261002e916100d1565b338061005357604051631e4fbdf760e01b81525f600482015260240160405180910390fd5b61005c81610082565b50600180546001600160a01b0319166001600160a01b03929092169190911790556100fe565b5f80546001600160a01b038381166001600160a01b0319831681178455604051919092169283917f8be0079c531659141344cd1fd0a4f28419497f9722a3daafe3b4186f6b6457e09190a35050565b5f602082840312156100e1575f5ffd5b81516001600160a01b03811681146100f7575f5ffd5b9392505050565b6114c48061010b5f395ff3fe608060405234801561000f575f5ffd5b5060043610610111575f3560e01c80639e1a4d191161009e578063d6343ea31161006e578063d6343ea314610257578063dc04493d14610276578063f2fde38b146102b1578063f5417ca2146102c4578063f7c618c1146102ea575f5ffd5b80639e1a4d191461020a578063a110b93f14610212578063bb8c979714610231578063c326423314610244575f5ffd5b8063547755da116100e4578063547755da146101985780635be11be7146101ab578063715018a6146101be5780638da5cb5b146101c6578063909b2da1146101ea575f5ffd5b80631ee93b15146101155780632130fe231461013b578063420c26de1461015b578063522bf1d414610170575b5f5ffd5b61012861012336600461101f565b6102fd565b6040519081526020015b60405180910390f35b61014e610149366004611074565b610498565b60405161013291906110c2565b61016e61016936600461101f565b610582565b005b61012861017e366004611074565b6001600160a01b03165f9081526005602052604090205490565b6101286101a6366004611125565b6105f7565b61016e6101b9366004611170565b610634565b61016e61064d565b5f546001600160a01b03165b6040516001600160a01b039091168152602001610132565b6101fd6101f8366004611190565b610660565b60405161013291906111b8565b610128610711565b610128610220366004611074565b60056020525f908152604090205481565b61016e61023f36600461101f565b610780565b61016e6102523660046111ca565b610ae1565b61012861026536600461122d565b60026020525f908152604090205481565b610128610284366004611125565b600660209081525f9283526040909220815180830184018051928152908401929093019190912091525481565b61016e6102bf366004611074565b610d24565b6102d76102d236600461101f565b610d61565b6040516101329796959493929190611244565b6001546101d2906001600160a01b031681565b5f5f60038360405161030f9190611292565b90815260200160405180910390206040518060e00160405290815f82018054610337906112a8565b80601f0160208091040260200160405190810160405280929190818152602001828054610363906112a8565b80156103ae5780601f10610385576101008083540402835291602001916103ae565b820191905f5260205f20905b81548152906001019060200180831161039157829003601f168201915b505050918352505060018201546001600160a01b03166020820152600282015460408201526003820154606082015260048201546080820152600582015460a082015260069091015460ff16151560c091820152810151909150158061041857508060a001514211155b1561042557505f92915050565b5f8160800151421061043b57816080015161043d565b425b90508160a00151811161045357505f9392505050565b5f6102588360a001518361046791906112f4565b6104719190611307565b6040808501515f9081526002602052205490915061048f9082611326565b95945050505050565b6001600160a01b0381165f908152600460209081526040808320805482518185028101850190935280835260609492939192909184015b82821015610577578382905f5260205f200180546104ec906112a8565b80601f0160208091040260200160405190810160405280929190818152602001828054610518906112a8565b80156105635780601f1061053a57610100808354040283529160200191610563565b820191905f5260205f20905b81548152906001019060200180831161054657829003601f168201915b5050505050815260200190600101906104cf565b505050509050919050565b61058a610e3c565b5f60038260405161059b9190611292565b908152604051908190036020018120600601805492151560ff19909316929092179091557fb4551525dafbacbcbad53f3a1ad477e2de2428dcd5832ae46d8edacf8c2959d5906105ec9083906111b8565b60405180910390a150565b6001600160a01b0382165f90815260066020526040808220905161061c908490611292565b90815260200160405180910390205490505b92915050565b61063c610e3c565b5f9182526002602052604090912055565b610655610e3c565b61065e5f610e68565b565b6004602052815f5260405f208181548110610679575f80fd5b905f5260205f20015f91509150508054610692906112a8565b80601f01602080910402602001604051908101604052809291908181526020018280546106be906112a8565b80156107095780601f106106e057610100808354040283529160200191610709565b820191905f5260205f20905b8154815290600101906020018083116106ec57829003601f168201915b505050505081565b6001546040516370a0823160e01b81523060048201525f916001600160a01b0316906370a0823190602401602060405180830381865afa158015610757573d5f5f3e3d5ffd5b505050506040513d601f19601f8201168201806040525081019061077b919061133d565b905090565b5f6003826040516107919190611292565b908152604051908190036020019020600681015490915060ff166107ee5760405162461bcd60e51b815260206004820152600f60248201526e4e6f6465206e6f742061637469766560881b60448201526064015b60405180910390fd5b60018101546001600160a01b0316331461083b5760405162461bcd60e51b815260206004820152600e60248201526d2737ba103737b2329037bbb732b960911b60448201526064016107e5565b5f610845836102fd565b90505f811161088d5760405162461bcd60e51b81526020600482015260146024820152734e6f207265776172647320617661696c61626c6560601b60448201526064016107e5565b5f826004015442106108a35782600401546108a5565b425b90505f6102588460050154836108bb91906112f4565b6108c59190611307565b90506108d381610258611326565b846005015f8282546108e59190611354565b90915550506004840154421061093a5760068401805460ff191690556040517fb4551525dafbacbcbad53f3a1ad477e2de2428dcd5832ae46d8edacf8c2959d5906109319087906111b8565b60405180910390a15b6001546040516370a0823160e01b815230600482015284916001600160a01b0316906370a0823190602401602060405180830381865afa158015610980573d5f5f3e3d5ffd5b505050506040513d601f19601f820116820180604052508101906109a4919061133d565b10156109f25760405162461bcd60e51b815260206004820181905260248201527f496e73756666696369656e74207265776172647320696e20636f6e747261637460448201526064016107e5565b6001808501549054610a11916001600160a01b03918216911685610eb7565b60018401546001600160a01b03165f90815260066020526040908190209051849190610a3e908890611292565b90815260200160405180910390205f828254610a5a9190611354565b909155505060018401546001600160a01b03165f9081526005602052604081208054859290610a8a908490611354565b909155505060018401546040516001600160a01b03909116907fa22c130ab9525575739c5b8856b4345b50ef04582844399f49949042eb410f0090610ad29088908790611367565b60405180910390a25050505050565b610ae9610e3c565b600385604051610af99190611292565b9081526040519081900360200190208054610b13906112a8565b159050610b585760405162461bcd60e51b81526020600482015260136024820152724e6f646520616c72656164792065786973747360681b60448201526064016107e5565b818111610b9a5760405162461bcd60e51b815260206004820152601060248201526f24b73b30b634b210323ab930ba34b7b760811b60448201526064016107e5565b5f83815260026020526040902054610bea5760405162461bcd60e51b8152602060048201526013602482015272141b185b881b9bdd0818dbdb999a59dd5c9959606a1b60448201526064016107e5565b6040518060e00160405280868152602001856001600160a01b0316815260200184815260200183815260200182815260200183815260200160011515815250600386604051610c399190611292565b90815260405190819003602001902081518190610c5690826113d3565b50602082810151600183810180546001600160a01b0319166001600160a01b03938416179055604080860151600286015560608601516003860155608086015160048087019190915560a0870151600587015560c0909601516006909501805460ff1916951515959095179094559088165f90815293825291832080549283018155835290912001610ce886826113d3565b50836001600160a01b03167f6f3c990a2f665f94ed1db0af40275bedd4d3d025f541e2c77112281fbee636008685604051610ad2929190611367565b610d2c610e3c565b6001600160a01b038116610d5557604051631e4fbdf760e01b81525f60048201526024016107e5565b610d5e81610e68565b50565b8051602081830181018051600382529282019190930120915280548190610d87906112a8565b80601f0160208091040260200160405190810160405280929190818152602001828054610db3906112a8565b8015610dfe5780601f10610dd557610100808354040283529160200191610dfe565b820191905f5260205f20905b815481529060010190602001808311610de157829003601f168201915b5050506001840154600285015460038601546004870154600588015460069098015496976001600160a01b0390941696929550909350919060ff1687565b5f546001600160a01b0316331461065e5760405163118cdaa760e01b81523360048201526024016107e5565b5f80546001600160a01b038381166001600160a01b0319831681178455604051919092169283917f8be0079c531659141344cd1fd0a4f28419497f9722a3daafe3b4186f6b6457e09190a35050565b604080516001600160a01b038416602482015260448082018490528251808303909101815260649091019091526020810180516001600160e01b031663a9059cbb60e01b179052610f09908490610f0e565b505050565b5f5f60205f8451602086015f885af180610f2d576040513d5f823e3d81fd5b50505f513d91508115610f44578060011415610f51565b6001600160a01b0384163b155b15610f7a57604051635274afe760e01b81526001600160a01b03851660048201526024016107e5565b50505050565b634e487b7160e01b5f52604160045260245ffd5b5f82601f830112610fa3575f5ffd5b813567ffffffffffffffff811115610fbd57610fbd610f80565b604051601f8201601f19908116603f0116810167ffffffffffffffff81118282101715610fec57610fec610f80565b604052818152838201602001851015611003575f5ffd5b816020850160208301375f918101602001919091529392505050565b5f6020828403121561102f575f5ffd5b813567ffffffffffffffff811115611045575f5ffd5b61105184828501610f94565b949350505050565b80356001600160a01b038116811461106f575f5ffd5b919050565b5f60208284031215611084575f5ffd5b61108d82611059565b9392505050565b5f81518084528060208401602086015e5f602082860101526020601f19601f83011685010191505092915050565b5f602082016020835280845180835260408501915060408160051b8601019250602086015f5b8281101561111957603f19878603018452611104858351611094565b945060209384019391909101906001016110e8565b50929695505050505050565b5f5f60408385031215611136575f5ffd5b61113f83611059565b9150602083013567ffffffffffffffff81111561115a575f5ffd5b61116685828601610f94565b9150509250929050565b5f5f60408385031215611181575f5ffd5b50508035926020909101359150565b5f5f604083850312156111a1575f5ffd5b6111aa83611059565b946020939093013593505050565b602081525f61108d6020830184611094565b5f5f5f5f5f60a086880312156111de575f5ffd5b853567ffffffffffffffff8111156111f4575f5ffd5b61120088828901610f94565b95505061120f60208701611059565b94979496505050506040830135926060810135926080909101359150565b5f6020828403121561123d575f5ffd5b5035919050565b60e081525f61125660e083018a611094565b6001600160a01b039890981660208301525060408101959095526060850193909352608084019190915260a0830152151560c090910152919050565b5f82518060208501845e5f920191825250919050565b600181811c908216806112bc57607f821691505b6020821081036112da57634e487b7160e01b5f52602260045260245ffd5b50919050565b634e487b7160e01b5f52601160045260245ffd5b8181038181111561062e5761062e6112e0565b5f8261132157634e487b7160e01b5f52601260045260245ffd5b500490565b808202811582820484141761062e5761062e6112e0565b5f6020828403121561134d575f5ffd5b5051919050565b8082018082111561062e5761062e6112e0565b604081525f6113796040830185611094565b90508260208301529392505050565b601f821115610f0957805f5260205f20601f840160051c810160208510156113ad5750805b601f840160051c820191505b818110156113cc575f81556001016113b9565b5050505050565b815167ffffffffffffffff8111156113ed576113ed610f80565b611401816113fb84546112a8565b84611388565b6020601f821160018114611433575f831561141c5750848201515b5f19600385901b1c1916600184901b1784556113cc565b5f84815260208120601f198516915b828110156114625787850151825560209485019460019092019101611442565b508482101561147f57868401515f19600387901b60f8161c191681555b50505050600190811b0190555056fea2646970667358221220cb0f7c15e7c6ee1c50d06013905eb0df4be0c0d391479182e31a4690a085c4ea64736f6c634300081c0033",
  "linkReferences": {},
  "deployedLinkReferences": {},
  "immutableReferences": {},
  "inputSourceName": "project/contracts/Reward.sol",
  "buildInfoId": "solc-0_8_28-294303aaada2def24d29dfbe2a93eaa9177d6b3e"
}